{"abi":[{"type":"constructor","inputs":[{"name":"_enclaveSigner","type":"address","internalType":"address"}],"stateMutability":"nonpayable"},{"type":"function","name":"enclaveSigner","inputs":[],"outputs":[{"name":"","type":"address","internalType":"address"}],"stateMutability":"view"},{"type":"function","name":"executed","inputs":[{"name":"","type":"bytes32","internalType":"bytes32"}],"outputs":[{"name":"","type":"bool","internalType":"bool"}],"stateMutability":"view"},{"type":"function","name":"owner","inputs":[],"outputs":[{"name":"","type":"address","internalType":"address"}],"stateMutability":"view"},{"type":"function","name":"renounceOwnership","inputs":[],"outputs":[],"stateMutability":"nonpayable"},{"type":"function","name":"setEnclaveSigner","inputs":[{"name":"newSigner","type":"address","internalType":"address"}],"outputs":[],"stateMutability":"nonpayable"},{"type":"function","name":"settle","inputs":[{"name":"t","type":"tuple","internalType":"struct DarkPoolSettlement.Trade","components":[{"name":"maker","type":"address","internalType":"address"},{"name":"taker","type":"address","internalType":"address"},{"name":"tokenA","type":"address","internalType":"address"},{"name":"tokenB","type":"address","internalType":"address"},{"name":"amountA","type":"uint256","internalType":"uint256"},{"name":"amountB","type":"uint256","internalType":"uint256"},{"name":"nonce","type":"uint256","internalType":"uint256"},{"name":"deadline","type":"uint256","internalType":"uint256"}]},{"name":"signature","type":"bytes","internalType":"bytes"}],"outputs":[],"stateMutability":"nonpayable"},{"type":"function","name":"transferOwnership","inputs":[{"name":"newOwner","type":"address","internalType":"address"}],"outputs":[],"stateMutability":"nonpayable"},{"type":"event","name":"OwnershipTransferred","inputs":[{"name":"previousOwner","type":"address","indexed":true,"internalType":"address"},{"name":"newOwner","type":"address","indexed":true,"internalType":"address"}],"anonymous":false},{"type":"event","name":"Settled","inputs":[{"name":"maker","type":"address","indexed":true,"internalType":"address"},{"name":"taker","type":"address","indexed":true,"internalType":"address"},{"name":"amountA","type":"uint256","indexed":false,"internalType":"uint256"},{"name":"amountB","type":"uint256","indexed":false,"internalType":"uint256"}],"anonymous":false},{"type":"error","name":"ECDSAInvalidSignature","inputs":[]},{"type":"error","name":"ECDSAInvalidSignatureLength","inputs":[{"name":"length","type":"uint256","internalType":"uint256"}]},{"type":"error","name":"ECDSAInvalidSignatureS","inputs":[{"name":"s","type":"bytes32","internalType":"bytes32"}]},{"type":"error","name":"OwnableInvalidOwner","inputs":[{"name":"owner","type":"address","internalType":"address"}]},{"type":"error","name":"OwnableUnauthorizedAccount","inputs":[{"name":"account","type":"address","internalType":"address"}]},{"type":"error","name":"SafeERC20FailedOperation","inputs":[{"name":"token","type":"address","internalType":"address"}]}],"bytecode":{"object":"0x608060405234801561000f575f5ffd5b506040516116d43803806116d483398181016040528101906100319190610217565b335f73ffffffffffffffffffffffffffffffffffffffff168173ffffffffffffffffffffffffffffffffffffffff16036100a2575f6040517f1e4fbdf70000000000000000000000000000000000000000000000000000000081526004016100999190610251565b60405180910390fd5b6100b1816100f860201b60201c565b508060025f6101000a81548173ffffffffffffffffffffffffffffffffffffffff021916908373ffffffffffffffffffffffffffffffffffffffff1602179055505061026a565b5f5f5f9054906101000a900473ffffffffffffffffffffffffffffffffffffffff169050815f5f6101000a81548173ffffffffffffffffffffffffffffffffffffffff021916908373ffffffffffffffffffffffffffffffffffffffff1602179055508173ffffffffffffffffffffffffffffffffffffffff168173ffffffffffffffffffffffffffffffffffffffff167f8be0079c531659141344cd1fd0a4f28419497f9722a3daafe3b4186f6b6457e060405160405180910390a35050565b5f5ffd5b5f73ffffffffffffffffffffffffffffffffffffffff82169050919050565b5f6101e6826101bd565b9050919050565b6101f6816101dc565b8114610200575f5ffd5b50565b5f81519050610211816101ed565b92915050565b5f6020828403121561022c5761022b6101b9565b5b5f61023984828501610203565b91505092915050565b61024b816101dc565b82525050565b5f6020820190506102645f830184610242565b92915050565b61145d806102775f395ff3fe608060405234801561000f575f5ffd5b506004361061007b575f3560e01c8063b33f3e2a11610059578063b33f3e2a146100d7578063b4e0eda7146100f5578063d31bbc9d14610111578063f2fde38b1461012d5761007b565b8063715018a61461007f5780638da5cb5b14610089578063a9fcfb33146100a7575b5f5ffd5b610087610149565b005b61009161015c565b60405161009e9190610c86565b60405180910390f35b6100c160048036038101906100bc9190610ce3565b610183565b6040516100ce9190610d28565b60405180910390f35b6100df6101a0565b6040516100ec9190610c86565b60405180910390f35b61010f600480360381019061010a9190610d6b565b6101c5565b005b61012b60048036038101906101269190610e1a565b610210565b005b61014760048036038101906101429190610d6b565b610633565b005b6101516106b7565b61015a5f61073e565b565b5f5f5f9054906101000a900473ffffffffffffffffffffffffffffffffffffffff16905090565b6001602052805f5260405f205f915054906101000a900460ff1681565b60025f9054906101000a900473ffffffffffffffffffffffffffffffffffffffff1681565b6101cd6106b7565b8060025f6101000a81548173ffffffffffffffffffffffffffffffffffffffff021916908373ffffffffffffffffffffffffffffffffffffffff16021790555050565b5f73ffffffffffffffffffffffffffffffffffffffff1683604001602081019061023a9190610d6b565b73ffffffffffffffffffffffffffffffffffffffff161415801561029c57505f73ffffffffffffffffffffffffffffffffffffffff168360600160208101906102839190610d6b565b73ffffffffffffffffffffffffffffffffffffffff1614155b6102db576040517f08c379a00000000000000000000000000000000000000000000000000000000081526004016102d290610ed3565b60405180910390fd5b8260e00135421115610322576040517f08c379a000000000000000000000000000000000000000000000000000000000815260040161031990610f3b565b60405180910390fd5b5f61033c8480360381019061033791906110df565b6107ff565b905060015f8281526020019081526020015f205f9054906101000a900460ff161561039c576040517f08c379a000000000000000000000000000000000000000000000000000000000815260040161039390611155565b60405180910390fd5b5f816040516020016103ae91906111e7565b6040516020818303038152906040528051906020012090505f6104148286868080601f0160208091040260200160405190810160405280939291908181526020018383808284375f81840152601f19601f8201169050808301925050505050505061085b565b905060025f9054906101000a900473ffffffffffffffffffffffffffffffffffffffff1673ffffffffffffffffffffffffffffffffffffffff168173ffffffffffffffffffffffffffffffffffffffff16146104a5576040517f08c379a000000000000000000000000000000000000000000000000000000000815260040161049c90611256565b60405180910390fd5b6001805f8581526020019081526020015f205f6101000a81548160ff021916908315150217905550610533865f0160208101906104e29190610d6b565b8760200160208101906104f59190610d6b565b886080013589604001602081019061050d9190610d6b565b73ffffffffffffffffffffffffffffffffffffffff16610885909392919063ffffffff16565b6105998660200160208101906105499190610d6b565b875f01602081019061055b9190610d6b565b8860a001358960600160208101906105739190610d6b565b73ffffffffffffffffffffffffffffffffffffffff16610885909392919063ffffffff16565b8560200160208101906105ac9190610d6b565b73ffffffffffffffffffffffffffffffffffffffff16865f0160208101906105d49190610d6b565b73ffffffffffffffffffffffffffffffffffffffff167f16c41a749cf94bd479b1fc5d82a6eb4557d71262f15dc382d2cf6f1eb3d68e8e88608001358960a00135604051610623929190611283565b60405180910390a3505050505050565b61063b6106b7565b5f73ffffffffffffffffffffffffffffffffffffffff168173ffffffffffffffffffffffffffffffffffffffff16036106ab575f6040517f1e4fbdf70000000000000000000000000000000000000000000000000000000081526004016106a29190610c86565b60405180910390fd5b6106b48161073e565b50565b6106bf610907565b73ffffffffffffffffffffffffffffffffffffffff166106dd61015c565b73ffffffffffffffffffffffffffffffffffffffff161461073c57610700610907565b6040517f118cdaa70000000000000000000000000000000000000000000000000000000081526004016107339190610c86565b60405180910390fd5b565b5f5f5f9054906101000a900473ffffffffffffffffffffffffffffffffffffffff169050815f5f6101000a81548173ffffffffffffffffffffffffffffffffffffffff021916908373ffffffffffffffffffffffffffffffffffffffff1602179055508173ffffffffffffffffffffffffffffffffffffffff168173ffffffffffffffffffffffffffffffffffffffff167f8be0079c531659141344cd1fd0a4f28419497f9722a3daafe3b4186f6b6457e060405160405180910390a35050565b5f815f015182602001518360400151846060015185608001518660a001518760c001518860e0015160405160200161083e9897969594939291906112aa565b604051602081830303815290604052805190602001209050919050565b5f5f5f5f610869868661090e565b9250925092506108798282610963565b82935050505092915050565b610901848573ffffffffffffffffffffffffffffffffffffffff166323b872dd8686866040516024016108ba93929190611326565b604051602081830303815290604052915060e01b6020820180517bffffffffffffffffffffffffffffffffffffffffffffffffffffffff8381831617835250505050610ac5565b50505050565b5f33905090565b5f5f5f604184510361094e575f5f5f602087015192506040870151915060608701515f1a905061094088828585610b60565b95509550955050505061095c565b5f600285515f1b9250925092505b9250925092565b5f60038111156109765761097561135b565b5b8260038111156109895761098861135b565b5b0315610ac157600160038111156109a3576109a261135b565b5b8260038111156109b6576109b561135b565b5b036109ed576040517ff645eedf00000000000000000000000000000000000000000000000000000000815260040160405180910390fd5b60026003811115610a0157610a0061135b565b5b826003811115610a1457610a1361135b565b5b03610a5857805f1c6040517ffce698f7000000000000000000000000000000000000000000000000000000008152600401610a4f9190611388565b60405180910390fd5b600380811115610a6b57610a6a61135b565b5b826003811115610a7e57610a7d61135b565b5b03610ac057806040517fd78bce0c000000000000000000000000000000000000000000000000000000008152600401610ab791906113b0565b60405180910390fd5b5b5050565b5f5f60205f8451602086015f885af180610ae4576040513d5f823e3d81fd5b3d92505f519150505f8214610afd576001811415610b18565b5f8473ffffffffffffffffffffffffffffffffffffffff163b145b15610b5a57836040517f5274afe7000000000000000000000000000000000000000000000000000000008152600401610b519190610c86565b60405180910390fd5b50505050565b5f5f5f7f7fffffffffffffffffffffffffffffff5d576e7357a4501ddfe92f46681b20a0845f1c1115610b9c575f600385925092509250610c3d565b5f6001888888886040515f8152602001604052604051610bbf94939291906113e4565b6020604051602081039080840390855afa158015610bdf573d5f5f3e3d5ffd5b5050506020604051035190505f73ffffffffffffffffffffffffffffffffffffffff168173ffffffffffffffffffffffffffffffffffffffff1603610c30575f60015f5f1b93509350935050610c3d565b805f5f5f1b935093509350505b9450945094915050565b5f73ffffffffffffffffffffffffffffffffffffffff82169050919050565b5f610c7082610c47565b9050919050565b610c8081610c66565b82525050565b5f602082019050610c995f830184610c77565b92915050565b5f604051905090565b5f5ffd5b5f5ffd5b5f819050919050565b610cc281610cb0565b8114610ccc575f5ffd5b50565b5f81359050610cdd81610cb9565b92915050565b5f60208284031215610cf857610cf7610ca8565b5b5f610d0584828501610ccf565b91505092915050565b5f8115159050919050565b610d2281610d0e565b82525050565b5f602082019050610d3b5f830184610d19565b92915050565b610d4a81610c66565b8114610d54575f5ffd5b50565b5f81359050610d6581610d41565b92915050565b5f60208284031215610d8057610d7f610ca8565b5b5f610d8d84828501610d57565b91505092915050565b5f5ffd5b5f6101008284031215610db057610daf610d96565b5b81905092915050565b5f5ffd5b5f5ffd5b5f5ffd5b5f5f83601f840112610dda57610dd9610db9565b5b8235905067ffffffffffffffff811115610df757610df6610dbd565b5b602083019150836001820283011115610e1357610e12610dc1565b5b9250929050565b5f5f5f6101208486031215610e3257610e31610ca8565b5b5f610e3f86828701610d9a565b93505061010084013567ffffffffffffffff811115610e6157610e60610cac565b5b610e6d86828701610dc5565b92509250509250925092565b5f82825260208201905092915050565b7f496e76616c696420746f6b656e000000000000000000000000000000000000005f82015250565b5f610ebd600d83610e79565b9150610ec882610e89565b602082019050919050565b5f6020820190508181035f830152610eea81610eb1565b9050919050565b7f45787069726564000000000000000000000000000000000000000000000000005f82015250565b5f610f25600783610e79565b9150610f3082610ef1565b602082019050919050565b5f6020820190508181035f830152610f5281610f19565b9050919050565b5f5ffd5b5f601f19601f8301169050919050565b7f4e487b71000000000000000000000000000000000000000000000000000000005f52604160045260245ffd5b610fa382610f5d565b810181811067ffffffffffffffff82111715610fc257610fc1610f6d565b5b80604052505050565b5f610fd4610c9f565b9050610fe08282610f9a565b919050565b5f819050919050565b610ff781610fe5565b8114611001575f5ffd5b50565b5f8135905061101281610fee565b92915050565b5f610100828403121561102e5761102d610f59565b5b611039610100610fcb565b90505f61104884828501610d57565b5f83015250602061105b84828501610d57565b602083015250604061106f84828501610d57565b604083015250606061108384828501610d57565b606083015250608061109784828501611004565b60808301525060a06110ab84828501611004565b60a08301525060c06110bf84828501611004565b60c08301525060e06110d384828501611004565b60e08301525092915050565b5f61010082840312156110f5576110f4610ca8565b5b5f61110284828501611018565b91505092915050565b7f416c7265616479206578656375746564000000000000000000000000000000005f82015250565b5f61113f601083610e79565b915061114a8261110b565b602082019050919050565b5f6020820190508181035f83015261116c81611133565b9050919050565b5f81905092915050565b7f19457468657265756d205369676e6564204d6573736167653a0a3332000000005f82015250565b5f6111b1601c83611173565b91506111bc8261117d565b601c82019050919050565b5f819050919050565b6111e16111dc82610cb0565b6111c7565b82525050565b5f6111f1826111a5565b91506111fd82846111d0565b60208201915081905092915050565b7f496e76616c6964207369676e61747572650000000000000000000000000000005f82015250565b5f611240601183610e79565b915061124b8261120c565b602082019050919050565b5f6020820190508181035f83015261126d81611234565b9050919050565b61127d81610fe5565b82525050565b5f6040820190506112965f830185611274565b6112a36020830184611274565b9392505050565b5f610100820190506112be5f83018b610c77565b6112cb602083018a610c77565b6112d86040830189610c77565b6112e56060830188610c77565b6112f26080830187611274565b6112ff60a0830186611274565b61130c60c0830185611274565b61131960e0830184611274565b9998505050505050505050565b5f6060820190506113395f830186610c77565b6113466020830185610c77565b6113536040830184611274565b949350505050565b7f4e487b71000000000000000000000000000000000000000000000000000000005f52602160045260245ffd5b5f60208201905061139b5f830184611274565b92915050565b6113aa81610cb0565b82525050565b5f6020820190506113c35f8301846113a1565b92915050565b5f60ff82169050919050565b6113de816113c9565b82525050565b5f6080820190506113f75f8301876113a1565b61140460208301866113d5565b61141160408301856113a1565b61141e60608301846113a1565b9594505050505056fea26469706673582212204c0837f1d8673a4ef48abe110ce3e8940f4709c440e6a7450837a57a3607b76064736f6c634300081e0033","linkReferences":{}},"methodIdentifiers":{"enclaveSigner()":"b33f3e2a","executed(bytes32)":"a9fcfb33","owner()":"8da5cb5b","renounceOwnership()":"715018a6","setEnclaveSigner(address)":"b4e0eda7","settle((address,address,address,address,uint256,uint256,uint256,uint256),bytes)":"d31bbc9d","transferOwnership(address)":"f2fde38b"},"id":30}